:1000000012C021C020C01FC01EC01DC01CC01BC00C
:100010004BC019C018C017C016C015C014C013C0FB
:1000200012C011C010C011241FBECFE5D4E0DEBF46
:10003000CDBF20E0A0E6B0E001C01D92A336B2071C
:10004000E1F741D09FC0DCCF882321F086B18068E2
:1000500086B9089586B18F7786B9089580E0F4DF78
:1000600087B1806C87B986B1876086B9089587B1FA
:100070008E7F87B9089587B1816087B9089586B169
:10008000806486B9089580E001C08F5F8430E8F312
:100090000895B69B04C081E08093600002C0109276
:1000A00060008091600008951F920F920FB60F922A
:1000B00011248F9381E0809362008F910F900FBE87
:1000C0000F901F901895D0E0C0E0C8DF37D078942B
:1000D000E0DF882371F080916100882351F081E096
:1000E000809361008CE291E02ED0811102C081E00A
:1000F000ABDF809162008823A1F010926200B7DF2D
:10010000BEDF3699FECF3499D4B1B5DFB8DF36996A
:10011000FECF3499C4B1BDDF682F8D2F9C2FB3DF84
:10012000D7CF80EA9FE00FD0811102C081E08CDF41
:10013000B0DF682F8D2F9C2FA6DFCACF1EBC89B7DA
:10014000846089BF0895813A2FE09207C8F40024A3
:10015000880F991F001C880F991F001C892F902D54
:1001600048EE53E0849F9001859F300D949F300DA1
:1001700011242CBD3DBD8EB583608EBD80E00895F9
:0801800081E00895F894FFCF1F
:00000001FF
